:100000000C942A000C9434000C9434000C943400AA
:100010000C9434000C9434000C9434000C94340090
:100020000C9434000C9434000C9434000C94340080
:100030000C9434000C9434000C9434000C94340070
:100040000C9434000C9434000C9434000C94340060
:100050000C94340011241FBECFE5D8E0DEBFCDBF25
:100060000E946D000C94A9000C9400008BBB80EAE8
:1000700085BB85E38A95F1F7000080E285BB80EFC0
:100080008A95F1F708958BBB90E895BBEFE3FCE907
:100090003197F1F700C0000015BA2FE732E342E0D4
:1000A000215030404040E1F700C0000081508230D4
:1000B00030F48FE39FE10197F1F700C0000008954D
:1000C00088E30E9443008FE00E94430081E00E9489
:1000D000430080E80E94430008958FEF8ABB80EFC1
:1000E00084BB8FEF97EAA1E681509040A040E1F7F2
:1000F00000C000000E94600083E40E94360089E690
:100100000E94360082E70E94360083E60E94360095
:1001100085E70E94360089E60E94360084E70E9447
:10012000360083E70E94360080E20E94360084E5B4
:100130000E9436008FE60E94360084E60E94360058
:1001400081E60E94360089E70E94360080E090E058
:060150000895F894FFCFB2
:00000001FF
