:100000000C942A000C943C000C943C000C943C0092
:100010000C943C000C943C000C943C000C943C0070
:100020000C943C000C943C000C943C000C943C0060
:100030000C943C000C943C000C943C000C943C0050
:100040000C943C000C943C000C943C000C943C0040
:100050000C943C0011241FBECFE5D8E0DEBFCDBF1D
:1000600010E0A0E6B0E001C01D92A236B107E1F7B2
:100070000E943E000C94DA000C9400008FEF8ABBC3
:1000800084BB8FEF99E6A8E181509040A040E1F752
:1000900000C000000E947B0081E40E94590088E4B7
:1000A0000E9459008FE40E9459008AE40E9459007E
:1000B000FFCF8BBB80EA85BB85E38A95F1F7000013
:1000C00080E285BB80EF8A95F1F708958BBB90E8BD
:1000D00095BB95E39A95F1F7000015BA90EF9A95C4
:1000E000F1F78150823030F48FE39FE10197F1F70F
:1000F00000C0000008958FEF8ABB80EF84BB88E3C7
:100100000E9466008FE00E94660081E00E94660007
:1001100080E80E9466000895EF92FF92CF93DF93EC
:10012000E82EE7017E01F92EE70105C08BBB219681
:1001300080810E945900FE0188818823B9F7DF91F0
:10014000CF91FF90EF9008951F931092610010924D
:1001500060000097A9F06AE070E00E94C600182FC6
:10016000CB010E94A400812F805D0E9459008091E4
:10017000600090916100019690936100809360000F
:1001800080916000909161001F910895AA1BBB1B94
:1001900051E107C0AA1FBB1FA617B70710F0A61B87
:1001A000B70B881F991F5A95A9F780959095BC01A8
:0801B000CD010895F894FFCF82
:00000001FF
